{
  "_format": "hh-sol-artifact-1",
  "contractName": "Task",
  "sourceName": "contracts/task.sol",
  "abi": [
    {
      "inputs": [],
      "stateMutability": "nonpayable",
      "type": "constructor"
    },
    {
      "inputs": [],
      "name": "ERC721EnumerableForbiddenBatchMint",
      "type": "error"
    },
    {
      "inputs": [
        {
          "internalType": "address",
          "name": "sender",
          "type": "address"
        },
        {
          "internalType": "uint256",
          "name": "tokenId",
          "type": "uint256"
        },
        {
          "internalType": "address",
          "name": "owner",
          "type": "address"
        }
      ],
      "name": "ERC721IncorrectOwner",
      "type": "error"
    },
    {
      "inputs": [
        {
          "internalType": "address",
          "name": "operator",
          "type": "address"
        },
        {
          "internalType": "uint256",
          "name": "tokenId",
          "type": "uint256"
        }
      ],
      "name": "ERC721InsufficientApproval",
      "type": "error"
    },
    {
      "inputs": [
        {
          "internalType": "address",
          "name": "approver",
          "type": "address"
        }
      ],
      "name": "ERC721InvalidApprover",
      "type": "error"
    },
    {
      "inputs": [
        {
          "internalType": "address",
          "name": "operator",
          "type": "address"
        }
      ],
      "name": "ERC721InvalidOperator",
      "type": "error"
    },
    {
      "inputs": [
        {
          "internalType": "address",
          "name": "owner",
          "type": "address"
        }
      ],
      "name": "ERC721InvalidOwner",
      "type": "error"
    },
    {
      "inputs": [
        {
          "internalType": "address",
          "name": "receiver",
          "type": "address"
        }
      ],
      "name": "ERC721InvalidReceiver",
      "type": "error"
    },
    {
      "inputs": [
        {
          "internalType": "address",
          "name": "sender",
          "type": "address"
        }
      ],
      "name": "ERC721InvalidSender",
      "type": "error"
    },
    {
      "inputs": [
        {
          "internalType": "uint256",
          "name": "tokenId",
          "type": "uint256"
        }
      ],
      "name": "ERC721NonexistentToken",
      "type": "error"
    },
    {
      "inputs": [
        {
          "internalType": "address",
          "name": "owner",
          "type": "address"
        },
        {
          "internalType": "uint256",
          "name": "index",
          "type": "uint256"
        }
      ],
      "name": "ERC721OutOfBoundsIndex",
      "type": "error"
    },
    {
      "anonymous": false,
      "inputs": [
        {
          "indexed": true,
          "internalType": "address",
          "name": "owner",
          "type": "address"
        },
        {
          "indexed": true,
          "internalType": "address",
          "name": "approved",
          "type": "address"
        },
        {
          "indexed": true,
          "internalType": "uint256",
          "name": "tokenId",
          "type": "uint256"
        }
      ],
      "name": "Approval",
      "type": "event"
    },
    {
      "anonymous": false,
      "inputs": [
        {
          "indexed": true,
          "internalType": "address",
          "name": "owner",
          "type": "address"
        },
        {
          "indexed": true,
          "internalType": "address",
          "name": "operator",
          "type": "address"
        },
        {
          "indexed": false,
          "internalType": "bool",
          "name": "approved",
          "type": "bool"
        }
      ],
      "name": "ApprovalForAll",
      "type": "event"
    },
    {
      "anonymous": false,
      "inputs": [
        {
          "indexed": true,
          "internalType": "address",
          "name": "from",
          "type": "address"
        },
        {
          "indexed": true,
          "internalType": "address",
          "name": "to",
          "type": "address"
        },
        {
          "indexed": true,
          "internalType": "uint256",
          "name": "tokenId",
          "type": "uint256"
        }
      ],
      "name": "Transfer",
      "type": "event"
    },
    {
      "stateMutability": "payable",
      "type": "fallback"
    },
    {
      "inputs": [
        {
          "internalType": "address",
          "name": "to",
          "type": "address"
        },
        {
          "internalType": "uint256",
          "name": "tokenId",
          "type": "uint256"
        }
      ],
      "name": "approve",
      "outputs": [],
      "stateMutability": "nonpayable",
      "type": "function"
    },
    {
      "inputs": [
        {
          "internalType": "address",
          "name": "owner",
          "type": "address"
        }
      ],
      "name": "balanceOf",
      "outputs": [
        {
          "internalType": "uint256",
          "name": "",
          "type": "uint256"
        }
      ],
      "stateMutability": "view",
      "type": "function"
    },
    {
      "inputs": [
        {
          "internalType": "uint256",
          "name": "tokenId",
          "type": "uint256"
        }
      ],
      "name": "getApproved",
      "outputs": [
        {
          "internalType": "address",
          "name": "",
          "type": "address"
        }
      ],
      "stateMutability": "view",
      "type": "function"
    },
    {
      "inputs": [
        {
          "internalType": "address",
          "name": "owner",
          "type": "address"
        },
        {
          "internalType": "address",
          "name": "operator",
          "type": "address"
        }
      ],
      "name": "isApprovedForAll",
      "outputs": [
        {
          "internalType": "bool",
          "name": "",
          "type": "bool"
        }
      ],
      "stateMutability": "view",
      "type": "function"
    },
    {
      "inputs": [],
      "name": "max_minted_amount",
      "outputs": [
        {
          "internalType": "uint256",
          "name": "",
          "type": "uint256"
        }
      ],
      "stateMutability": "view",
      "type": "function"
    },
    {
      "inputs": [],
      "name": "max_supply",
      "outputs": [
        {
          "internalType": "uint256",
          "name": "",
          "type": "uint256"
        }
      ],
      "stateMutability": "view",
      "type": "function"
    },
    {
      "inputs": [
        {
          "internalType": "uint256",
          "name": "amount",
          "type": "uint256"
        }
      ],
      "name": "mint",
      "outputs": [],
      "stateMutability": "payable",
      "type": "function"
    },
    {
      "inputs": [],
      "name": "name",
      "outputs": [
        {
          "internalType": "string",
          "name": "",
          "type": "string"
        }
      ],
      "stateMutability": "view",
      "type": "function"
    },
    {
      "inputs": [],
      "name": "nft_price",
      "outputs": [
        {
          "internalType": "uint256",
          "name": "",
          "type": "uint256"
        }
      ],
      "stateMutability": "view",
      "type": "function"
    },
    {
      "inputs": [
        {
          "internalType": "uint256",
          "name": "tokenId",
          "type": "uint256"
        }
      ],
      "name": "ownerOf",
      "outputs": [
        {
          "internalType": "address",
          "name": "",
          "type": "address"
        }
      ],
      "stateMutability": "view",
      "type": "function"
    },
    {
      "inputs": [
        {
          "internalType": "address",
          "name": "from",
          "type": "address"
        },
        {
          "internalType": "address",
          "name": "to",
          "type": "address"
        },
        {
          "internalType": "uint256",
          "name": "tokenId",
          "type": "uint256"
        }
      ],
      "name": "safeTransferFrom",
      "outputs": [],
      "stateMutability": "nonpayable",
      "type": "function"
    },
    {
      "inputs": [
        {
          "internalType": "address",
          "name": "from",
          "type": "address"
        },
        {
          "internalType": "address",
          "name": "to",
          "type": "address"
        },
        {
          "internalType": "uint256",
          "name": "tokenId",
          "type": "uint256"
        },
        {
          "internalType": "bytes",
          "name": "data",
          "type": "bytes"
        }
      ],
      "name": "safeTransferFrom",
      "outputs": [],
      "stateMutability": "nonpayable",
      "type": "function"
    },
    {
      "inputs": [
        {
          "internalType": "address",
          "name": "operator",
          "type": "address"
        },
        {
          "internalType": "bool",
          "name": "approved",
          "type": "bool"
        }
      ],
      "name": "setApprovalForAll",
      "outputs": [],
      "stateMutability": "nonpayable",
      "type": "function"
    },
    {
      "inputs": [
        {
          "internalType": "bytes4",
          "name": "interfaceId",
          "type": "bytes4"
        }
      ],
      "name": "supportsInterface",
      "outputs": [
        {
          "internalType": "bool",
          "name": "",
          "type": "bool"
        }
      ],
      "stateMutability": "view",
      "type": "function"
    },
    {
      "inputs": [],
      "name": "symbol",
      "outputs": [
        {
          "internalType": "string",
          "name": "",
          "type": "string"
        }
      ],
      "stateMutability": "view",
      "type": "function"
    },
    {
      "inputs": [
        {
          "internalType": "uint256",
          "name": "index",
          "type": "uint256"
        }
      ],
      "name": "tokenByIndex",
      "outputs": [
        {
          "internalType": "uint256",
          "name": "",
          "type": "uint256"
        }
      ],
      "stateMutability": "view",
      "type": "function"
    },
    {
      "inputs": [
        {
          "internalType": "address",
          "name": "owner",
          "type": "address"
        },
        {
          "internalType": "uint256",
          "name": "index",
          "type": "uint256"
        }
      ],
      "name": "tokenOfOwnerByIndex",
      "outputs": [
        {
          "internalType": "uint256",
          "name": "",
          "type": "uint256"
        }
      ],
      "stateMutability": "view",
      "type": "function"
    },
    {
      "inputs": [
        {
          "internalType": "uint256",
          "name": "tokenId",
          "type": "uint256"
        }
      ],
      "name": "tokenURI",
      "outputs": [
        {
          "internalType": "string",
          "name": "",
          "type": "string"
        }
      ],
      "stateMutability": "view",
      "type": "function"
    },
    {
      "inputs": [],
      "name": "totalSupply",
      "outputs": [
        {
          "internalType": "uint256",
          "name": "",
          "type": "uint256"
        }
      ],
      "stateMutability": "view",
      "type": "function"
    },
    {
      "inputs": [
        {
          "internalType": "address",
          "name": "from",
          "type": "address"
        },
        {
          "internalType": "address",
          "name": "to",
          "type": "address"
        },
        {
          "internalType": "uint256",
          "name": "tokenId",
          "type": "uint256"
        }
      ],
      "name": "transferFrom",
      "outputs": [],
      "stateMutability": "nonpayable",
      "type": "function"
    },
    {
      "inputs": [],
      "name": "withdraw",
      "outputs": [],
      "stateMutability": "nonpayable",
      "type": "function"
    },
    {
      "stateMutability": "payable",
      "type": "receive"
    }
  ],
  "bytecode": "0x60806040523480156200001157600080fd5b506040518060400160405280600a81526020017f7461736b5f746f6b656e000000000000000000000000000000000000000000008152506040518060400160405280600381526020017f74736b000000000000000000000000000000000000000000000000000000000081525081600090816200008f919062000365565b508060019081620000a1919062000365565b50505033600a60006101000a81548173ffffffffffffffffffffffffffffffffffffffff021916908373ffffffffffffffffffffffffffffffffffffffff1602179055506200044c565b600081519050919050565b7f4e487b7100000000000000000000000000000000000000000000000000000000600052604160045260246000fd5b7f4e487b7100000000000000000000000000000000000000000000000000000000600052602260045260246000fd5b600060028204905060018216806200016d57607f821691505b60208210810362000183576200018262000125565b5b50919050565b60008190508160005260206000209050919050565b60006020601f8301049050919050565b600082821b905092915050565b600060088302620001ed7fffffffffffffffffffffffffffffffffffffffffffffffffffffffffffffffff82620001ae565b620001f98683620001ae565b95508019841693508086168417925050509392505050565b6000819050919050565b6000819050919050565b600062000246620002406200023a8462000211565b6200021b565b62000211565b9050919050565b6000819050919050565b620002628362000225565b6200027a62000271826200024d565b848454620001bb565b825550505050565b600090565b6200029162000282565b6200029e81848462000257565b505050565b5b81811015620002c657620002ba60008262000287565b600181019050620002a4565b5050565b601f8211156200031557620002df8162000189565b620002ea846200019e565b81016020851015620002fa578190505b6200031262000309856200019e565b830182620002a3565b50505b505050565b600082821c905092915050565b60006200033a600019846008026200031a565b1980831691505092915050565b600062000355838362000327565b9150826002028217905092915050565b6200037082620000eb565b67ffffffffffffffff8111156200038c576200038b620000f6565b5b62000398825462000154565b620003a5828285620002ca565b600060209050601f831160018114620003dd5760008415620003c8578287015190505b620003d4858262000347565b86555062000444565b601f198416620003ed8662000189565b60005b828110156200041757848901518255600182019150602085019450602081019050620003f0565b8683101562000437578489015162000433601f89168262000327565b8355505b6001600288020188555050505b505050505050565b612bc1806200045c6000396000f3fe60806040526004361061012e5760003560e01c806342842e0e116100ab57806395d89b411161006f57806395d89b411461040e578063a0712d6814610439578063a22cb46514610455578063b88d4fde1461047e578063c87b56dd146104a7578063e985e9c5146104e457610135565b806342842e0e146103035780634f6ccce71461032c5780636352211e1461036957806370a08231146103a65780638a333b50146103e357610135565b806318160ddd116100f257806318160ddd1461023057806318aec12b1461025b57806323b872dd146102865780632f745c59146102af5780633ccfd60b146102ec57610135565b806301ffc9a71461013757806306fdde0314610174578063081812fc1461019f578063095ea7b3146101dc578063108ddf5b1461020557610135565b3661013557005b005b34801561014357600080fd5b5061015e6004803603810190610159919061207e565b610521565b60405161016b91906120c6565b60405180910390f35b34801561018057600080fd5b5061018961059b565b6040516101969190612171565b60405180910390f35b3480156101ab57600080fd5b506101c660048036038101906101c191906121c9565b61062d565b6040516101d39190612237565b60405180910390f35b3480156101e857600080fd5b5061020360048036038101906101fe919061227e565b610649565b005b34801561021157600080fd5b5061021a61065f565b60405161022791906122cd565b60405180910390f35b34801561023c57600080fd5b5061024561066a565b60405161025291906122cd565b60405180910390f35b34801561026757600080fd5b50610270610677565b60405161027d91906122cd565b60405180910390f35b34801561029257600080fd5b506102ad60048036038101906102a891906122e8565b61067c565b005b3480156102bb57600080fd5b506102d660048036038101906102d1919061227e565b61077e565b6040516102e391906122cd565b60405180910390f35b3480156102f857600080fd5b50610301610827565b005b34801561030f57600080fd5b5061032a600480360381019061032591906122e8565b610979565b005b34801561033857600080fd5b50610353600480360381019061034e91906121c9565b610999565b60405161036091906122cd565b60405180910390f35b34801561037557600080fd5b50610390600480360381019061038b91906121c9565b610a0f565b60405161039d9190612237565b60405180910390f35b3480156103b257600080fd5b506103cd60048036038101906103c8919061233b565b610a21565b6040516103da91906122cd565b60405180910390f35b3480156103ef57600080fd5b506103f8610adb565b60405161040591906122cd565b60405180910390f35b34801561041a57600080fd5b50610423610ae1565b6040516104309190612171565b60405180910390f35b610453600480360381019061044e91906121c9565b610b73565b005b34801561046157600080fd5b5061047c60048036038101906104779190612394565b610c62565b005b34801561048a57600080fd5b506104a560048036038101906104a09190612509565b610c78565b005b3480156104b357600080fd5b506104ce60048036038101906104c991906121c9565b610c95565b6040516104db9190612171565b60405180910390f35b3480156104f057600080fd5b5061050b6004803603810190610506919061258c565b610cfe565b60405161051891906120c6565b60405180910390f35b60007f780e9d63000000000000000000000000000000000000000000000000000000007bffffffffffffffffffffffffffffffffffffffffffffffffffffffff1916827bffffffffffffffffffffffffffffffffffffffffffffffffffffffff19161480610594575061059382610d92565b5b9050919050565b6060600080546105aa906125fb565b80601f01602080910402602001604051908101604052809291908181526020018280546105d6906125fb565b80156106235780601f106105f857610100808354040283529160200191610623565b820191906000526020600020905b81548152906001019060200180831161060657829003601f168201915b5050505050905090565b600061063882610e74565b5061064282610efc565b9050919050565b61065b8282610656610f39565b610f41565b5050565b66038d7ea4c6800081565b6000600880549050905090565b600981565b600073ffffffffffffffffffffffffffffffffffffffff168273ffffffffffffffffffffffffffffffffffffffff16036106ee5760006040517f64a0ae920000000000000000000000000000000000000000000000000000000081526004016106e59190612237565b60405180910390fd5b600061070283836106fd610f39565b610f53565b90508373ffffffffffffffffffffffffffffffffffffffff168173ffffffffffffffffffffffffffffffffffffffff1614610778578382826040517f64283d7b00000000000000000000000000000000000000000000000000000000815260040161076f9392919061262c565b60405180910390fd5b50505050565b600061078983610a21565b82106107ce5782826040517fa57d13dc0000000000000000000000000000000000000000000000000000000081526004016107c5929190612663565b60405180910390fd5b600660008473ffffffffffffffffffffffffffffffffffffffff1673ffffffffffffffffffffffffffffffffffffffff168152602001908152602001600020600083815260200190815260200160002054905092915050565b600a60009054906101000a900473ffffffffffffffffffffffffffffffffffffffff1673ffffffffffffffffffffffffffffffffffffffff163373ffffffffffffffffffffffffffffffffffffffff161461088157600080fd5b6000479050600081116108c9576040517f08c379a00000000000000000000000000000000000000000000000000000000081526004016108c0906126d8565b60405180910390fd5b60003373ffffffffffffffffffffffffffffffffffffffff16826040516108ef90612729565b60006040518083038185875af1925050503d806000811461092c576040519150601f19603f3d011682016040523d82523d6000602084013e610931565b606091505b5050905080610975576040517f08c379a000000000000000000000000000000000000000000000000000000000815260040161096c9061278a565b60405180910390fd5b5050565b61099483838360405180602001604052806000815250610c78565b505050565b60006109a361066a565b82106109e9576000826040517fa57d13dc0000000000000000000000000000000000000000000000000000000081526004016109e0929190612663565b60405180910390fd5b600882815481106109fd576109fc6127aa565b5b90600052602060002001549050919050565b6000610a1a82610e74565b9050919050565b60008073ffffffffffffffffffffffffffffffffffffffff168273ffffffffffffffffffffffffffffffffffffffff1603610a945760006040517f89c62b64000000000000000000000000000000000000000000000000000000008152600401610a8b9190612237565b60405180910390fd5b600360008373ffffffffffffffffffffffffffffffffffffffff1673ffffffffffffffffffffffffffffffffffffffff168152602001908152602001600020549050919050565b6103e781565b606060018054610af0906125fb565b80601f0160208091040260200160405190810160405280929190818152602001828054610b1c906125fb565b8015610b695780601f10610b3e57610100808354040283529160200191610b69565b820191906000526020600020905b815481529060010190602001808311610b4c57829003601f168201915b5050505050905090565b60008111610bb6576040517f08c379a0000000000000000000000000000000000000000000000000000000008152600401610bad9061284b565b60405180910390fd5b60098110610bf9576040517f08c379a0000000000000000000000000000000000000000000000000000000008152600401610bf0906128dd565b60405180910390fd5b8066038d7ea4c68000610c0c919061292c565b341015610c1857600080fd5b60005b818111610c5e576000610c2c61066a565b90506103e7610c3961066a565b1015610c4a57610c493382611070565b5b508080610c569061296e565b915050610c1b565b5050565b610c74610c6d610f39565b838361108e565b5050565b610c8384848461067c565b610c8f848484846111fd565b50505050565b6060610ca082610e74565b506000610cab6113b4565b90506000815111610ccb5760405180602001604052806000815250610cf6565b80610cd5846113cb565b604051602001610ce69291906129f2565b6040516020818303038152906040525b915050919050565b6000600560008473ffffffffffffffffffffffffffffffffffffffff1673ffffffffffffffffffffffffffffffffffffffff16815260200190815260200160002060008373ffffffffffffffffffffffffffffffffffffffff1673ffffffffffffffffffffffffffffffffffffffff16815260200190815260200160002060009054906101000a900460ff16905092915050565b60007f80ac58cd000000000000000000000000000000000000000000000000000000007bffffffffffffffffffffffffffffffffffffffffffffffffffffffff1916827bffffffffffffffffffffffffffffffffffffffffffffffffffffffff19161480610e5d57507f5b5e139f000000000000000000000000000000000000000000000000000000007bffffffffffffffffffffffffffffffffffffffffffffffffffffffff1916827bffffffffffffffffffffffffffffffffffffffffffffffffffffffff1916145b80610e6d5750610e6c82611499565b5b9050919050565b600080610e8083611503565b9050600073ffffffffffffffffffffffffffffffffffffffff168173ffffffffffffffffffffffffffffffffffffffff1603610ef357826040517f7e273289000000000000000000000000000000000000000000000000000000008152600401610eea91906122cd565b60405180910390fd5b80915050919050565b60006004600083815260200190815260200160002060009054906101000a900473ffffffffffffffffffffffffffffffffffffffff169050919050565b600033905090565b610f4e8383836001611540565b505050565b600080610f61858585611705565b9050600073ffffffffffffffffffffffffffffffffffffffff168173ffffffffffffffffffffffffffffffffffffffff1603610fa557610fa08461191f565b610fe4565b8473ffffffffffffffffffffffffffffffffffffffff168173ffffffffffffffffffffffffffffffffffffffff1614610fe357610fe28185611968565b5b5b600073ffffffffffffffffffffffffffffffffffffffff168573ffffffffffffffffffffffffffffffffffffffff16036110265761102184611ac9565b611065565b8473ffffffffffffffffffffffffffffffffffffffff168173ffffffffffffffffffffffffffffffffffffffff1614611064576110638585611b9a565b5b5b809150509392505050565b61108a828260405180602001604052806000815250611c25565b5050565b600073ffffffffffffffffffffffffffffffffffffffff168273ffffffffffffffffffffffffffffffffffffffff16036110ff57816040517f5b08ba180000000000000000000000000000000000000000000000000000000081526004016110f69190612237565b60405180910390fd5b80600560008573ffffffffffffffffffffffffffffffffffffffff1673ffffffffffffffffffffffffffffffffffffffff16815260200190815260200160002060008473ffffffffffffffffffffffffffffffffffffffff1673ffffffffffffffffffffffffffffffffffffffff16815260200190815260200160002060006101000a81548160ff0219169083151502179055508173ffffffffffffffffffffffffffffffffffffffff168373ffffffffffffffffffffffffffffffffffffffff167f17307eab39ab6107e8899845ad3d59bd9653f200f220920489ca2b5937696c31836040516111f091906120c6565b60405180910390a3505050565b60008373ffffffffffffffffffffffffffffffffffffffff163b11156113ae578273ffffffffffffffffffffffffffffffffffffffff1663150b7a02611241610f39565b8685856040518563ffffffff1660e01b81526004016112639493929190612a6b565b6020604051808303816000875af192505050801561129f57506040513d601f19601f8201168201806040525081019061129c9190612acc565b60015b611323573d80600081146112cf576040519150601f19603f3d011682016040523d82523d6000602084013e6112d4565b606091505b50600081510361131b57836040517f64a0ae920000000000000000000000000000000000000000000000000000000081526004016113129190612237565b60405180910390fd5b805181602001fd5b63150b7a0260e01b7bffffffffffffffffffffffffffffffffffffffffffffffffffffffff1916817bffffffffffffffffffffffffffffffffffffffffffffffffffffffff1916146113ac57836040517f64a0ae920000000000000000000000000000000000000000000000000000000081526004016113a39190612237565b60405180910390fd5b505b50505050565b606060405180602001604052806000815250905090565b6060600060016113da84611c41565b01905060008167ffffffffffffffff8111156113f9576113f86123de565b5b6040519080825280601f01601f19166020018201604052801561142b5781602001600182028036833780820191505090505b509050600082602001820190505b60011561148e578080600190039150507f3031323334353637383961626364656600000000000000000000000000000000600a86061a8153600a858161148257611481612af9565b5b04945060008503611439575b819350505050919050565b60007f01ffc9a7000000000000000000000000000000000000000000000000000000007bffffffffffffffffffffffffffffffffffffffffffffffffffffffff1916827bffffffffffffffffffffffffffffffffffffffffffffffffffffffff1916149050919050565b60006002600083815260200190815260200160002060009054906101000a900473ffffffffffffffffffffffffffffffffffffffff169050919050565b80806115795750600073ffffffffffffffffffffffffffffffffffffffff168273ffffffffffffffffffffffffffffffffffffffff1614155b156116ad57600061158984610e74565b9050600073ffffffffffffffffffffffffffffffffffffffff168373ffffffffffffffffffffffffffffffffffffffff16141580156115f457508273ffffffffffffffffffffffffffffffffffffffff168173ffffffffffffffffffffffffffffffffffffffff1614155b801561160757506116058184610cfe565b155b1561164957826040517fa9fbf51f0000000000000000000000000000000000000000000000000000000081526004016116409190612237565b60405180910390fd5b81156116ab57838573ffffffffffffffffffffffffffffffffffffffff168273ffffffffffffffffffffffffffffffffffffffff167f8c5be1e5ebec7d5bd14f71427d1e84f3dd0314c0f7b2291e5b200ac8c7c3b92560405160405180910390a45b505b836004600085815260200190815260200160002060006101000a81548173ffffffffffffffffffffffffffffffffffffffff021916908373ffffffffffffffffffffffffffffffffffffffff16021790555050505050565b60008061171184611503565b9050600073ffffffffffffffffffffffffffffffffffffffff168373ffffffffffffffffffffffffffffffffffffffff161461175357611752818486611d94565b5b600073ffffffffffffffffffffffffffffffffffffffff168173ffffffffffffffffffffffffffffffffffffffff16146117e457611795600085600080611540565b6001600360008373ffffffffffffffffffffffffffffffffffffffff1673ffffffffffffffffffffffffffffffffffffffff168152602001908152602001600020600082825403925050819055505b600073ffffffffffffffffffffffffffffffffffffffff168573ffffffffffffffffffffffffffffffffffffffff1614611867576001600360008773ffffffffffffffffffffffffffffffffffffffff1673ffffffffffffffffffffffffffffffffffffffff168152602001908152602001600020600082825401925050819055505b846002600086815260200190815260200160002060006101000a81548173ffffffffffffffffffffffffffffffffffffffff021916908373ffffffffffffffffffffffffffffffffffffffff160217905550838573ffffffffffffffffffffffffffffffffffffffff168273ffffffffffffffffffffffffffffffffffffffff167fddf252ad1be2c89b69c2b068fc378daa952ba7f163c4a11628f55a4df523b3ef60405160405180910390a4809150509392505050565b6008805490506009600083815260200190815260200160002081905550600881908060018154018082558091505060019003906000526020600020016000909190919091505550565b600061197383610a21565b9050600060076000848152602001908152602001600020549050818114611a58576000600660008673ffffffffffffffffffffffffffffffffffffffff1673ffffffffffffffffffffffffffffffffffffffff168152602001908152602001600020600084815260200190815260200160002054905080600660008773ffffffffffffffffffffffffffffffffffffffff1673ffffffffffffffffffffffffffffffffffffffff168152602001908152602001600020600084815260200190815260200160002081905550816007600083815260200190815260200160002081905550505b6007600084815260200190815260200160002060009055600660008573ffffffffffffffffffffffffffffffffffffffff1673ffffffffffffffffffffffffffffffffffffffff16815260200190815260200160002060008381526020019081526020016000206000905550505050565b60006001600880549050611add9190612b28565b9050600060096000848152602001908152602001600020549050600060088381548110611b0d57611b0c6127aa565b5b906000526020600020015490508060088381548110611b2f57611b2e6127aa565b5b906000526020600020018190555081600960008381526020019081526020016000208190555060096000858152602001908152602001600020600090556008805480611b7e57611b7d612b5c565b5b6001900381819060005260206000200160009055905550505050565b60006001611ba784610a21565b611bb19190612b28565b905081600660008573ffffffffffffffffffffffffffffffffffffffff1673ffffffffffffffffffffffffffffffffffffffff168152602001908152602001600020600083815260200190815260200160002081905550806007600084815260200190815260200160002081905550505050565b611c2f8383611e58565b611c3c60008484846111fd565b505050565b600080600090507a184f03e93ff9f4daa797ed6e38ed64bf6a1f0100000000000000008310611c9f577a184f03e93ff9f4daa797ed6e38ed64bf6a1f0100000000000000008381611c9557611c94612af9565b5b0492506040810190505b6d04ee2d6d415b85acef81000000008310611cdc576d04ee2d6d415b85acef81000000008381611cd257611cd1612af9565b5b0492506020810190505b662386f26fc100008310611d0b57662386f26fc100008381611d0157611d00612af9565b5b0492506010810190505b6305f5e1008310611d34576305f5e1008381611d2a57611d29612af9565b5b0492506008810190505b6127108310611d59576127108381611d4f57611d4e612af9565b5b0492506004810190505b60648310611d7c5760648381611d7257611d71612af9565b5b0492506002810190505b600a8310611d8b576001810190505b80915050919050565b611d9f838383611f51565b611e5357600073ffffffffffffffffffffffffffffffffffffffff168373ffffffffffffffffffffffffffffffffffffffff1603611e1457806040517f7e273289000000000000000000000000000000000000000000000000000000008152600401611e0b91906122cd565b60405180910390fd5b81816040517f177e802f000000000000000000000000000000000000000000000000000000008152600401611e4a929190612663565b60405180910390fd5b505050565b600073ffffffffffffffffffffffffffffffffffffffff168273ffffffffffffffffffffffffffffffffffffffff1603611eca5760006040517f64a0ae92000000000000000000000000000000000000000000000000000000008152600401611ec19190612237565b60405180910390fd5b6000611ed883836000610f53565b9050600073ffffffffffffffffffffffffffffffffffffffff168173ffffffffffffffffffffffffffffffffffffffff1614611f4c5760006040517f73c6ac6e000000000000000000000000000000000000000000000000000000008152600401611f439190612237565b60405180910390fd5b505050565b60008073ffffffffffffffffffffffffffffffffffffffff168373ffffffffffffffffffffffffffffffffffffffff161415801561200957508273ffffffffffffffffffffffffffffffffffffffff168473ffffffffffffffffffffffffffffffffffffffff161480611fca5750611fc98484610cfe565b5b8061200857508273ffffffffffffffffffffffffffffffffffffffff16611ff083610efc565b73ffffffffffffffffffffffffffffffffffffffff16145b5b90509392505050565b6000604051905090565b600080fd5b600080fd5b60007fffffffff0000000000000000000000000000000000000000000000000000000082169050919050565b61205b81612026565b811461206657600080fd5b50565b60008135905061207881612052565b92915050565b6000602082840312156120945761209361201c565b5b60006120a284828501612069565b91505092915050565b60008115159050919050565b6120c0816120ab565b82525050565b60006020820190506120db60008301846120b7565b92915050565b600081519050919050565b600082825260208201905092915050565b60005b8381101561211b578082015181840152602081019050612100565b60008484015250505050565b6000601f19601f8301169050919050565b6000612143826120e1565b61214d81856120ec565b935061215d8185602086016120fd565b61216681612127565b840191505092915050565b6000602082019050818103600083015261218b8184612138565b905092915050565b6000819050919050565b6121a681612193565b81146121b157600080fd5b50565b6000813590506121c38161219d565b92915050565b6000602082840312156121df576121de61201c565b5b60006121ed848285016121b4565b91505092915050565b600073ffffffffffffffffffffffffffffffffffffffff82169050919050565b6000612221826121f6565b9050919050565b61223181612216565b82525050565b600060208201905061224c6000830184612228565b92915050565b61225b81612216565b811461226657600080fd5b50565b60008135905061227881612252565b92915050565b600080604083850312156122955761229461201c565b5b60006122a385828601612269565b92505060206122b4858286016121b4565b9150509250929050565b6122c781612193565b82525050565b60006020820190506122e260008301846122be565b92915050565b6000806000606084860312156123015761230061201c565b5b600061230f86828701612269565b935050602061232086828701612269565b9250506040612331868287016121b4565b9150509250925092565b6000602082840312156123515761235061201c565b5b600061235f84828501612269565b91505092915050565b612371816120ab565b811461237c57600080fd5b50565b60008135905061238e81612368565b92915050565b600080604083850312156123ab576123aa61201c565b5b60006123b985828601612269565b92505060206123ca8582860161237f565b9150509250929050565b600080fd5b600080fd5b7f4e487b7100000000000000000000000000000000000000000000000000000000600052604160045260246000fd5b61241682612127565b810181811067ffffffffffffffff82111715612435576124346123de565b5b80604052505050565b6000612448612012565b9050612454828261240d565b919050565b600067ffffffffffffffff821115612474576124736123de565b5b61247d82612127565b9050602081019050919050565b82818337600083830152505050565b60006124ac6124a784612459565b61243e565b9050828152602081018484840111156124c8576124c76123d9565b5b6124d384828561248a565b509392505050565b600082601f8301126124f0576124ef6123d4565b5b8135612500848260208601612499565b91505092915050565b600080600080608085870312156125235761252261201c565b5b600061253187828801612269565b945050602061254287828801612269565b9350506040612553878288016121b4565b925050606085013567ffffffffffffffff81111561257457612573612021565b5b612580878288016124db565b91505092959194509250565b600080604083850312156125a3576125a261201c565b5b60006125b185828601612269565b92505060206125c285828601612269565b9150509250929050565b7f4e487b7100000000000000000000000000000000000000000000000000000000600052602260045260246000fd5b6000600282049050600182168061261357607f821691505b602082108103612626576126256125cc565b5b50919050565b60006060820190506126416000830186612228565b61264e60208301856122be565b61265b6040830184612228565b949350505050565b60006040820190506126786000830185612228565b61268560208301846122be565b9392505050565b7f4e6f20657468657220696e20636f6e7472616374000000000000000000000000600082015250565b60006126c26014836120ec565b91506126cd8261268c565b602082019050919050565b600060208201905081810360008301526126f1816126b5565b9050919050565b600081905092915050565b50565b60006127136000836126f8565b915061271e82612703565b600082019050919050565b600061273482612706565b9150819050919050565b7f7472616e73666572206661696c65640000000000000000000000000000000000600082015250565b6000612774600f836120ec565b915061277f8261273e565b602082019050919050565b600060208201905081810360008301526127a381612767565b9050919050565b7f4e487b7100000000000000000000000000000000000000000000000000000000600052603260045260246000fd5b7f6d696e7420616e6f756e742073686f756c64206265206772656174657220746860008201527f616e203000000000000000000000000000000000000000000000000000000000602082015250565b60006128356024836120ec565b9150612840826127d9565b604082019050919050565b6000602082019050818103600083015261286481612828565b9050919050565b7f6d696e7420616d6f756e742073686f756c64206265206c657373207468616e2060008201527f6d617820616d6f756e7400000000000000000000000000000000000000000000602082015250565b60006128c7602a836120ec565b91506128d28261286b565b604082019050919050565b600060208201905081810360008301526128f6816128ba565b9050919050565b7f4e487b7100000000000000000000000000000000000000000000000000000000600052601160045260246000fd5b600061293782612193565b915061294283612193565b925082820261295081612193565b91508282048414831517612967576129666128fd565b5b5092915050565b600061297982612193565b91507fffffffffffffffffffffffffffffffffffffffffffffffffffffffffffffffff82036129ab576129aa6128fd565b5b600182019050919050565b600081905092915050565b60006129cc826120e1565b6129d681856129b6565b93506129e68185602086016120fd565b80840191505092915050565b60006129fe82856129c1565b9150612a0a82846129c1565b91508190509392505050565b600081519050919050565b600082825260208201905092915050565b6000612a3d82612a16565b612a478185612a21565b9350612a578185602086016120fd565b612a6081612127565b840191505092915050565b6000608082019050612a806000830187612228565b612a8d6020830186612228565b612a9a60408301856122be565b8181036060830152612aac8184612a32565b905095945050505050565b600081519050612ac681612052565b92915050565b600060208284031215612ae257612ae161201c565b5b6000612af084828501612ab7565b91505092915050565b7f4e487b7100000000000000000000000000000000000000000000000000000000600052601260045260246000fd5b6000612b3382612193565b9150612b3e83612193565b9250828203905081811115612b5657612b556128fd565b5b92915050565b7f4e487b7100000000000000000000000000000000000000000000000000000000600052603160045260246000fdfea264697066735822122074979065b20f8f3dac0499dcb9decc8dac82a21707c9af8b25704b95b4d70c5b64736f6c63430008180033",
  "linkReferences": {},
  "deployedLinkReferences": {}
}